:100000000C9434000C9451000C9451000C94510049
:100010000C9451000C9451000C9451000C9451001C
:100020000C9451000C9451000C9451000C9451000C
:100030000C9451000C9465000C9451000C945100E8
:100040000C9451000C9451000C9451000C945100EC
:100050000C9451000C9451000C9451000C945100DC
:100060000C9451000C94510011241FBECFEFD8E026
:10007000DEBFCDBF11E0A0E0B1E0EAECF9E002C0E4
:1000800005900D92A034B107D9F721E0A0E4B1E0CA
:1000900001C01D92A235B207E1F70E9426010C941F
:1000A000E3040C9400003C9A3D980895449882E043
:1000B0008A95F1F700C0449A80E28A95F1F7449856
:1000C00082E08A95F1F700C008951F920F920FB653
:1000D0000F9211248F939F93AF93BF938091480108
:1000E00090914901A0914A01B0914B010196A11D47
:1000F000B11D8093480190934901A0934A01B093A8
:100100004B011092850010928400BF91AF919F9196
:100110008F910F900FBE0F901F901895CF93DF9384
:100120000E9453000E94560021C08091440190918A
:100130004501A0914601B09147010196A11DB11D55
:100140008093440190934501A0934601B0934701E9
:100150008091440190914501A0914601B0914701E1
:1001600085319F48A340B10508F068C0359BDDCFBD
:100170001092850010928400E1E8F0E080818160B7
:100180008083EFE6F0E080818160808310924801F7
:100190001092490110924A0110924B017894E4E8C0
:1001A000F0E019C0209148013091490140914A0185
:1001B00050914B01C081D181AFEFBFEF0E94CE01C2
:1001C000DC01CB018C0F9D1FA11DB11D85319F4806
:1001D000A340B105B0F53599E5CF10928100F894B0
:1001E000209148013091490140914A0150914B01C1
:1001F000E0918400F0918500AFEFBFEF0E94CE0147
:10020000DC01CB018E0F9F1FA11DB11D809340010A
:1002100090934101A0934201B0934301609140014A
:1002200070914101809142019091430120ED31E0B4
:1002300040E050E00E94AC01C90105C08FEF9FEF84
:1002400002C08EEF9FEFDF91CF9108950E9483014E
:10025000ECE4F1E08EE091E09383828380E091E032
:1002600091838083CFE2D1E00E948E008F3F2FEFF9
:100270009207D9F48CE191E00E94FE018FE79AE1A8
:1002800026E0815090402040E1F700C0000082E26B
:1002900091E00E94FE018FE79AE126E081509040B4
:1002A0002040E1F700C00000DFCF8E3F2FEF920724
:1002B00091F483E291E00E94FE018FEF94E32CE041
:1002C000815090402040E1F700C0000082E291E0C0
:1002D0000E94FE01C9CF9F938F93DF93CF930E941B
:1002E000E8012FEF84E39CE0215080409040E1F74B
:1002F00000C0000082E291E00E94FE010F900F908A
:100300000F900F90B1CF1092C50083E38093C4008B
:10031000E0ECF0E080818D7F808386E08093C200F6
:1003200088E18093C1000895CF93C82F8A3019F4D3
:100330008DE00E949401E0ECF0E0908195FFFDCF0C
:10034000C093C600CF910895E0ECF0E0808188234F
:10035000ECF78091C6000895A1E21A2EAA1BBB1BE0
:10036000FD010DC0AA1FBB1FEE1FFF1FA217B30781
:10037000E407F50720F0A21BB30BE40BF50B661F97
:10038000771F881F991F1A9469F76095709580955B
:1003900090959B01AC01BD01CF0108950E94D90148
:1003A000A59F900DB49F900DA49F800D911D1124C9
:1003B0000895A29FB001B39FC001A39F700D811D3E
:1003C0001124911DB29F700D811D1124911D08955E
:1003D000A0E0B0E0EEEEF1E00C94BC04AE014B5FA7
:1003E0005F4FFA0161917191AF0180914E0190913F
:1003F0004F010E942E02E2E00C94D8040F931F9349
:10040000CF93DF93E0914E01F0914F01238121FFC3
:100410001BC08C01D0E0C0E0F80181918F01609198
:100420004E0170914F01DB011896ED91FC911997E7
:10043000882331F00995892B79F3DFEFCFEFECCFEB
:100440008AE00995892B19F08FEF9FEF02C08D2F5D
:100450009C2FDF91CF911F910F910895ACE0B0E0F8
:10046000E4E3F2E00C94AC047C016B018A01FC0132
:1004700017821682838181FFBDC1CE0101964C0196
:10048000F7019381F60193FD859193FF81916F01AF
:10049000882309F4ABC1853239F493FD859193FF2C
:1004A00081916F01853229F4B70190E00E94160412
:1004B000E7CF512C312C20E02032A0F48B3269F0B0
:1004C00030F4803259F0833269F420612CC08D32CF
:1004D00039F0803339F4216026C02260246023C0C3
:1004E000286021C027FD27C030ED380F3A3078F45E
:1004F00026FF06C0FAE05F9E300D1124532E13C074
:100500008AE0389E300D1124332E20620CC08E32CA
:1005100021F426FD6BC1206406C08C3611F42068DE
:1005200002C0883641F4F60193FD859193FF8191D5
:100530006F018111C1CF982F9F7D9554933028F47E
:100540000C5F1F4FFFE3F9830DC0833631F0833713
:1005500071F0833509F05BC022C0F8018081898386
:100560000E5F1F4F44244394512C540115C0380191
:10057000F2E06F0E711CF801A080B18026FF03C06D
:10058000652D70E002C06FEF7FEFC5012C870E94E0
:100590000B042C0183012C852F77222E17C03801E4
:1005A000F2E06F0E711CF801A080B18026FF03C03D
:1005B000652D70E002C06FEF7FEFC5012C870E94B0
:1005C00000042C012C852068222E830123FC1BC0F3
:1005D000832D90E048165906B0F4B70180E290E010
:1005E0000E9416043A94F4CFF50127FC859127FE6A
:1005F00081915F01B70190E00E94160431103A9496
:10060000F1E04F1A51084114510471F7E5C08436E6
:1006100011F0893639F5F80127FF07C06081718133
:10062000828193810C5F1F4F08C060817181072E0A
:10063000000C880B990B0E5F1F4F2F76722E97FFC1
:1006400009C090958095709561957F4F8F4F9F4F12
:100650002068722E2AE030E0A4010E944E04A82EE9
:10066000A81844C0853729F42F7EB22E2AE030E046
:1006700025C0F22FF97FBF2E8F36C1F018F48835D0
:1006800079F0B4C0803719F0883721F0AFC02F2F30
:100690002061B22EB4FE0DC08B2D8460B82E09C02F
:1006A00024FF0AC09F2F9660B92E06C028E030E0D4
:1006B00005C020E130E002C020E132E0F801B7FEE1
:1006C00007C060817181828193810C5F1F4F06C0DA
:1006D0006081718180E090E00E5F1F4FA4010E9455
:1006E0004E04A82EA818FB2DFF777F2E76FE0BC098
:1006F000372D3E7FA51450F474FE0AC072FC08C06A
:10070000372D3E7E05C0BA2C372D03C0BA2C01C050
:10071000B52C34FF0DC0FE01EA0DF11D8081803340
:1007200011F4397E09C032FF06C0B394B39404C0FB
:10073000832F867809F0B39433FD13C030FF06C0D1
:100740005A2CB31418F4530C5B18B32CB31468F47C
:10075000B70180E290E03C870E941604B3943C8588
:10076000F5CFB31410F43B1801C0312C34FF12C084
:10077000B70180E390E03C870E9416043C8532FF7D
:1007800017C031FD03C088E790E002C088E590E023
:10079000B7010CC0832F867859F031FF02C08BE27D
:1007A00001C080E237FD8DE2B70190E00E9416049F
:1007B000A51438F4B70180E390E00E9416045A941F
:1007C000F7CFAA94F401EA0DF11D8081B70190E002
:1007D0000E941604A110F5CF332009F451CEB701C1
:1007E00080E290E00E9416043A94F6CFF7018681E9
:1007F000978102C08FEF9FEF2C96E2E10C94C80422
:10080000FC010590615070400110D8F780959095DB
:100810008E0F9F1F0895FC016150704001900110E0
:10082000D8F7809590958E0F9F1F08950F931F9373
:10083000CF93DF93FB01238121FD03C08FEF9FEF57
:1008400028C022FF16C04681578124813581421776
:10085000530744F4A081B1819D012F5F3F4F318345
:1008600020838C93268137812F5F3F4F37832683E8
:1008700010C0EB01092F182F0084F185E02D099598
:10088000892BE1F68E819F8101969F838E83812F34
:10089000902FDF91CF911F910F910895FA01AA2710
:1008A000283051F1203181F1E8946F936E7F6E5FB3
:1008B0007F4F8F4F9F4FAF4FB1E03ED0B4E03CD061
:1008C000670F781F891F9A1FA11D680F791F8A1F44
:1008D000911DA11D6A0F711D811D911DA11D20D0AB
:1008E00009F468943F912AE0269F11243019305D65
:1008F0003193DEF6CF010895462F4770405D419356
:10090000B3E00FD0C9F7F6CF462F4F70405D4A33A2
:1009100018F0495D31FD4052419302D0A9F7EACF6A
:10092000B4E0A6959795879577956795BA95C9F799
:1009300000976105710508959B01AC010A2E06948C
:100940005795479537952795BA95C9F7620F731F45
:10095000841F951FA01D08952F923F924F925F9282
:100960006F927F928F929F92AF92BF92CF92DF92BF
:10097000EF92FF920F931F93CF93DF93CDB7DEB724
:10098000CA1BDB0B0FB6F894DEBF0FBECDBF0994B8
:100990002A88398848885F846E847D848C849B840F
:1009A000AA84B984C884DF80EE80FD800C811B811D
:1009B000AA81B981CE0FD11D0FB6F894DEBF0FBE4C
:0A09C000CDBFED010895F894FFCFBC
:1009CA0000000001000000000000A4010000000077
:1009DA000002000000009401000000004572726FDE
:1009EA007221004563686F206572726F722100443C
:1009FA00697374616E636528636D293A2025640002
:00000001FF
