S01100004D617273526F7665722E7372656372
S11300000C9434000C9451000C9451000C94510045
S11300100C9451000C9451000C9451000C94510018
S11300200C9451000C9451000C9451000C94510008
S11300300C9451000C941E040C9451000C94510027
S11300400C9451000C9451000C9451000C945100E8
S11300500C9451000C9451000C9451000C945100D8
S11300600C94E3030C94510011241FBECFEFD8E08D
S1130070DEBFCDBF12E0A0E0B1E0E4EDF4E102C0E8
S113008005900D92A830B107D9F722E0A8E0B2E0BC
S113009001C01D92AB31B207E1F70E94BB030C947F
S11300A0680A0C9400004F925F926F927F928F9235
S11300B09F92AF92BF92CF92DF92EF92FF920F93F3
S11300C01F93CF93DF93D82FC92F8CE191E00E9427
S11300D083070F2EF5E9CF2EF1E0DF2EF02DED2E64
S11300E0FC2ECAE9D1E00F2EFFE98F2EF1E09F2EFE
S11300F0F02DAA24A394B12C0F2EFAE06F2EF02D2C
S1130100712C412C512CF60181916F01843439F00A
S1130110883409F440C0833409F0BBC07EC02AB1DE
S1130120FE01C501088002C0880F991F0A94E2F7F6
S1130130822B8AB92BB1C501088002C0880F991F90
S11301400A94E2F7822B8BB925E32A95F1F7000094
S1130150529889B190E0088002C0959587950A94D9
S1130160E2F780FDA9C0842D952D95C025E32A953D
S1130170F1F700000A96803D27E0920709F48BC04E
S113018029B130E0008002C0359527950A94E2F742
S113019020FDECCF80C024B18E01C501088002C0CF
S11301A0880F991F0A94E2F7822B84B925B1C501FF
S11301B0088002C0880F991F0A94E2F7822B85B940
S11301C085E38A95F1F7000087E291E00E948307B6
S11301D084B114B883B190E0088002C095958795E6
S11301E00A94E2F780FD6FC0842D952D54C0E5E399
S11301F0EA95F1F700000A96803DF7E09F0709F4BD
S11302004AC023B130E0F801008002C0359527953B
S11302100A94E2F720FDEBCF3EC027B1FE01C501F1
S1130220088002C0880F991F0A94E2F7822B87B9CD
S113023028B1C501088002C0880F991F0A94E2F70B
S1130240822B88B925E32A95F1F7000087B117B806
S113025086B190E0088002C0959587950A94E2F7EC
S113026080FD23C0842D952D16C025E32A95F1F732
S113027000000A96803D27E0920769F026B130E03D
S1130280008002C0359527950A94E2F720FDEDCF52
S113029002C0842D952DF701819391937F012196BE
S11302A0C815D90509F02FCF15C025E32A95F1F714
S11302B00000862D972DE2CF85E38A95F1F70000A3
S11302C0862D972D5DCFE5E3EA95F1F70000862DA5
S11302D0972D97CFDF91CF911F910F91FF90EF90C2
S11302E0DF90CF90BF90AF909F908F907F906F9052
S11302F05F904F9008954F925F926F927F928F928A
S11303009F92AF92BF92CF92DF92EF92FF926B01D6
S11303107C01CA01B901A70196010E9428056B015D
S11303207C0160910C0270910D0280910E029091FB
S11303300F020E9444064B015C012DEC3CEC4CEC9A
S11303405DE3C701B6010E94F9062B013C012AE0D6
S113035037ED43EA5BE3C501B4010E94F9069B0152
S1130360AC01C301B2010E9429052B013C0160913B
S113037008027091090280910A0290910B020E9476
S113038044069B01AC01C701B6010E9428052AE07E
S113039037ED43E25CE30E94F9069B01AC01C30123
S11303A0B2010E9429052B013C01A5019401C7015A
S11303B0B6010E9429050E940C0660930C027093FA
S11303C00D0280930E0290930F02C701B6010E94A2
S11303D00C06609308027093090280930A029093BA
S11303E00B02C301B201FF90EF90DF90CF90BF905A
S11303F0AF909F908F907F906F905F904F900895F3
S1130400CF92DF92EF92FF92CF93DF936B017C0147
S11304100E940C067F936F938DE291E09F938F93DC
S11304200E9466076091B30070E080E090E00E9453
S113043044069B01AC010F900F900F900F90C701E1
S1130440B6010E94F40618164CF46091B30070E0F3
S113045080E090E00E9442066B017C0167B570E089
S113046080E090E00E9444069B01AC01C701B60104
S113047090580E94F40618166CF467B570E07195F4
S113048061957109072E000C880B990B0E94440694
S11304906B017C01C701B6010E940C067F936F9328
S11304A087E391E09F938F930E9466070F900F90CC
S11304B00F900F9020E030E0A901C701B6010E941F
S11304C0F406181694F4C3EBD0E0688170E080E081
S11304D090E00E944406A70196010E9428050E940C
S11304E01306688382E887BD19C020E030E0A901C3
S11304F0C701B6010E949505181684F067B570E02F
S113050080E090E00E944406A70196010E9429051C
S11305100E94130667BD8CE88093B30097B5809161
S1130520B3001F929F931F928F9383E491E09F9354
S11305308F930E9466070F900F900F900F900F906B
S11305400F90DF91CF91FF90EF90DF90CF900895BF
S11305502F923F924F925F926F927F928F929F92CF
S1130560AF92BF92CF92DF92EF92FF920F931F93BD
S1130570CF93DF936C018C017C01A12CB12C912CC5
S1130580C9E5D1E0F701819191917F01E92DF0E076
S1130590EE0FFF1FEC0DFD1D208131812817390757
S11305A008F49A2C9F938F93BF92AF92DF93CF93CB
S11305B00E946607EFEFAE1ABE0A0F900F900F90DD
S11305C00F900F900F90F5E0AF16B104D9F6292CD7
S11305D0312C1F929F9283E691E09F938F930E9408
S11305E066078AE090E00E947C070F900F900F90BE
S11305F00F90C0E0D0E0812C912C5401612C712C1F
S1130600412C512CF801619171918F0180E090E0AF
S11306100E9442066B017C012196662D772D842D64
S1130620952D0E9444062B013C01BE010D2E000CA9
S1130630880B990B0E9444069B01AC01C701B601CB
S11306400E94F9069B01AC01C301B2010E94290575
S11306500E940C06662E772E482E592EA70196016D
S1130660C501B4010E9429054B015C01C530D105C7
S113067049F60E940C067F936F937F926F9280E7F6
S113068091E09F938F930E9466070F900F900F90B5
S11306900F900F900F9020E030E0A901C501B40144
S11306A00E94F40618167CF4662D772D842D952D62
S11306B00E944406A50194010E949A050E940C061A
S11306C06B017C0104C0C12CD12C7601CA94F101C8
S11306D0EE0FFF1FE557FE4F80819181BC01990FFA
S11306E0880B990B0E94440620E030E0A9010E9487
S11306F07B010E940002C701B6010E944406DF91FB
S1130700CF911F910F91FF90EF90DF90CF90BF900A
S1130710AF909F908F907F906F905F904F903F909D
S11307202F9008950F931F93CF93DF93CDB7DEB728
S11307302A970FB6F894DEBF0FBECDBF8E010F5FB0
S11307401F4F8AE0F80111928A95E9F783E891E056
S11307500E948307C8010E945300C8010E94A80296
S11307602A960FB6F894DEBF0FBECDBFDF91CF91AE
S11307701F910F9108950E94D3040E94FF04E5E1A4
S1130780F2E08EE091E09383828380E091E09183B4
S113079080832FEF81EE94E0215080409040E1F778
S11307A000C000000E9447048FE991E00E94830783
S11307B086EA91E00E9483078DEA91E00E94830714
S11307C00E949203F9CF1F920F920FB60F92112439
S11307D02F933F934F935F936F937F938F939F9345
S11307E0AF93BF93EF93FF938091B900803841F0AA
S11307F0883881F0803689F485EC8093BC000DC084
S11308008091BB00809314020E944E048FEB80936E
S1130810BC0003C085EC8093BC00FF91EF91BF91B5
S1130820AF919F918F917F916F915F914F913F9184
S11308302F910F900FBE0F901F9018951F920F923B
S11308400FB60F9211248F939F93AF93BF93809110
S1130850100290911102A0911202B091130201961C
S1130860A11DB11D8093100290931102A093120256
S1130870B09313021092850010928400BF91AF913F
S11308809F918F910F900FBE0F901F90189580E449
S11308908093BA0085EC8093BC000895CF93C82F51
S11308A01F928F938DEC91E09F938F930E94660724
S11308B00F900F900F900F90C33009F450C028F49C
S11308C0C13051F0C230D9F16CC0C43009F453C006
S11308D0C53009F45CC065C087B5883D08F061C0C7
S11308E08091B300883D08F05CC097B58091B30057
S11308F0981309C087B5885D87BDE3EBF0E080817C
S1130900885D808304C080E587BD8093B30088ED53
S113091091E00E9483079091B30087B51F929F9343
S11309201F928F938FED91E09F938F930E946607A0
S11309300F900F900F900F900F900F9032C017BC34
S11309401092B30088B5885D88BDE4EBF0E0808147
S1130950885D808386EE91E00E94830722C018BCE4
S11309601092B40080E587BD1092B3008CEE91E044
S11309700E94830716C018BC1092B40017BC80E50F
S11309808093B30082EF91E00E9483070AC017BCF2
S11309901092B30018BC1092B4008AEF91E00E9448
S11309A08307CF9108958FEF91E09F938F930E94D7
S11309B066078AB188668AB9239A84B5836084BD40
S11309C0E0EBF0E080818360808384B5806A84BD3D
S11309D08081806A808317BC18BC1092B300109287
S11309E0B40016BC1092B20085B5836085BDE1EBFE
S11309F0F0E08081836080830F900F9008951092BF
S1130A00C50087E68093C400E0ECF0E080818D7F30
S1130A10808386E08093C20088E18093C1000895BA
S1130A20CF93C82F8A3019F48DE00E941005E0ECB2
S1130A30F0E0908195FFFDCFC093C600CF9108955B
S1130A40E0ECF0E080818823ECF78091C600089503
S1130A505058BB27AA270E9440050C94BA060E944E
S1130A60AC0638F00E94B30620F039F49F3F19F425
S1130A7026F40C94A9060EF4E095E7FB0C94A30667
S1130A80E92F0E94CB0658F3BA176207730784074D
S1130A90950720F079F4A6F50C94ED060EF4E09594
S1130AA00B2EBA2FA02D0B01B90190010C01CA0124
S1130AB0A0011124FF27591B99F0593F50F4503ECF
S1130AC068F11A16F040A22F232F342F4427585FC1
S1130AD0F3CF469537952795A795F0405395C9F7D9
S1130AE07EF41F16BA0B620B730B840BBAF0915091
S1130AF0A1F0FF0FBB1F661F771F881FC2F70EC030
S1130B00BA0F621F731F841F48F487957795679502
S1130B10B795F7959E3F08F0B0CF9395880F08F0EE
S1130B209927EE0F9795879508950E947F0608F4FC
S1130B3081E008950E94AE050C94BA060E94B306A3
S1130B4058F00E94AC0640F029F45F3F29F00C9461
S1130B50A30651110C94EE060C94A9060E94CB0630
S1130B6068F39923B1F3552391F3951B550BBB27D8
S1130B70AA2762177307840738F09F5F5F4F220F1D
S1130B80331F441FAA1FA9F335D00E2E3AF0E0E814
S1130B9032D091505040E695001CCAF72BD0FE2F5E
S1130BA029D0660F771F881FBB1F261737074807F2
S1130BB0AB07B0E809F0BB0B802DBF01FF279358AA
S1130BC05F4F3AF09E3F510578F00C94A3060C94C5
S1130BD0EE065F3FE4F3983ED4F3869577956795E8
S1130BE0B795F7959F5FC9F7880F911D96958795DF
S1130BF097F90895E1E0660F771F881FBB1F6217FE
S1130C0073078407BA0720F0621B730B840BBA0BBB
S1130C10EE1F88F7E09508950E9413066894B111B9
S1130C200C94EE0608950E94D30688F09F5798F01E
S1130C30B92F9927B751B0F0E1F0660F771F881FDD
S1130C40991F1AF0BA95C9F714C0B13091F00E94F7
S1130C50ED06B1E008950C94ED06672F782F8827F0
S1130C60B85F39F0B93FCCF3869577956795B3951E
S1130C70D9F73EF490958095709561957F4F8F4F8D
S1130C809F4F0895E89409C097FB3EF49095809592
S1130C90709561957F4F8F4F9F4F9923A9F0F92F3E
S1130CA096E9BB279395F695879577956795B795BC
S1130CB0F111F8CFFAF4BB0F11F460FF1BC06F5FA2
S1130CC07F4F8F4F9F4F16C0882311F096E911C0B4
S1130CD0772321F09EE8872F762F05C0662371F0D5
S1130CE096E8862F70E060E02AF09A95660F771FE9
S1130CF0881FDAF7880F9695879597F90895990FC5
S1130D000008550FAA0BE0E8FEEF16161706E807D1
S1130D10F907C0F012161306E407F50798F0621BF2
S1130D20730B840B950B39F40A2661F0232B242BC7
S1130D30252B21F408950A2609F4A140A6958FEFE6
S1130D40811D811D089597F99F6780E870E060E038
S1130D5008959FEF80EC089500240A941616170650
S1130D6018060906089500240A9412161306140698
S1130D7005060895092E0394000C11F4882352F0FB
S1130D80BB0F40F4BF2B11F460FF04C06F5F7F4FB3
S1130D908F4F9F4F089557FD9058440F551F59F09A
S1130DA05F3F71F04795880F97FB991F61F09F3F54
S1130DB079F087950895121613061406551FF2CF7D
S1130DC04695F1DF08C0161617061806991FF1CFCD
S1130DD086957105610508940895E894BB276627F4
S1130DE07727CB0197F908950E947F0608F48FEFC7
S1130DF008950E940C070C94BA060E94AC0638F0C1
S1130E000E94B30620F0952311F00C94A3060C94D1
S1130E10A90611240C94EE060E94CB0670F3959F4C
S1130E20C1F3950F50E0551F629FF001729FBB27DD
S1130E30F00DB11D639FAA27F00DB11DAA1F649F79
S1130E406627B00DA11D661F829F2227B00DA11D2C
S1130E50621F739FB00DA11D621F839FA00D611DB2
S1130E60221F749F3327A00D611D231F849F600DD3
S1130E70211D822F762F6A2F11249F5750409AF0FC
S1130E80F1F088234AF0EE0FFF1FBB1F661F771F88
S1130E90881F91505040A9F79E3F510580F00C9453
S1130EA0A3060C94EE065F3FE4F3983ED4F38695D4
S1130EB077956795B795F795E7959F5FC1F7FE2BF3
S1130EC0880F911D9695879597F90895A0E0B0E055
S1130ED0ECE6F7E00C94410AAE014B5F5F4FFA0178
S1130EE061917191AF0180911702909118020E9453
S1130EF0B307E2E00C945D0A609117027091180246
S1130F000E949B0908950F931F93CF93DF93E09161
S1130F101702F0911802238121FF1BC08C01D0E03D
S1130F20C0E0F80181918F0160911702709118025D
S1130F30DB011896ED91FC911997882331F00995FE
S1130F40892B79F3DFEFCFEFECCF8AE00995892B7A
S1130F5019F08FEF9FEF02C08D2F9C2FDF91CF915F
S1130F601F910F910895ACE0B0E0E9EBF7E00C9429
S1130F70310A7C016B018A01FC011782168283818C
S1130F8081FFBDC1CE0101964C01F7019381F601A9
S1130F9093FD859193FF81916F01882309F4ABC17F
S1130FA0853239F493FD859193FF81916F018532E8
S1130FB029F4B70190E00E949B09E7CF512C312C12
S1130FC020E02032A0F48B3269F030F4803259F002
S1130FD0833269F420612CC08D3239F0803339F4C6
S1130FE0216026C02260246023C0286021C027FD20
S1130FF027C030ED380F3A3078F426FF06C0FAE007
S11310005F9E300D1124532E13C08AE0389E300D9C
S11310101124332E20620CC08E3221F426FD6BC1C4
S1131020206406C08C3611F4206802C0883641F46E
S1131030F60193FD859193FF81916F018111C1CFD9
S1131040982F9F7D9554933028F40C5F1F4FFFE336
S1131050F9830DC0833631F0833771F0833509F09D
S11310605BC022C0F801808189830E5F1F4F442436
S11310704394512C540115C03801F2E06F0E711CD9
S1131080F801A080B18026FF03C0652D70E002C086
S11310906FEF7FEFC5012C870E9490092C0183011B
S11310A02C852F77222E17C03801F2E06F0E711CA9
S11310B0F801A080B18026FF03C0652D70E002C056
S11310C06FEF7FEFC5012C870E9485092C012C85C9
S11310D02068222E830123FC1BC0832D90E0481638
S11310E05906B0F4B70180E290E00E949B093A945B
S11310F0F4CFF50127FC859127FE81915F01B701AB
S113110090E00E949B0931103A94F1E04F1A510883
S11311104114510471F7E5C0843611F0893639F56C
S1131120F80127FF07C060817181828193810C5F80
S11311301F4F08C060817181072E000C880B990B2A
S11311400E5F1F4F2F76722E97FF09C090958095E2
S1131150709561957F4F8F4F9F4F2068722E2AE0C4
S113116030E0A4010E94D309A82EA81844C08537F2
S113117029F42F7EB22E2AE030E025C0F22FF97F29
S1131180BF2E8F36C1F018F4883579F0B4C080379B
S113119019F0883721F0AFC02F2F2061B22EB4FE92
S11311A00DC08B2D8460B82E09C024FF0AC09F2F68
S11311B09660B92E06C028E030E005C020E130E09A
S11311C002C020E132E0F801B7FE07C060817181FE
S11311D0828193810C5F1F4F06C06081718180E022
S11311E090E00E5F1F4FA4010E94D309A82EA818F7
S11311F0FB2DFF777F2E76FE0BC0372D3E7FA51487
S113120050F474FE0AC072FC08C0372D3E7E05C03F
S1131210BA2C372D03C0BA2C01C0B52C34FF0DC035
S1131220FE01EA0DF11D8081803311F4397E09C07D
S113123032FF06C0B394B39404C0832F867809F0B8
S1131240B39433FD13C030FF06C05A2CB31418F402
S1131250530C5B18B32CB31468F4B70180E290E02C
S11312603C870E949B09B3943C85F5CFB31410F4DA
S11312703B1801C0312C34FF12C0B70180E390E069
S11312803C870E949B093C8532FF17C031FD03C097
S113129088E790E002C088E590E0B7010CC0832F96
S11312A0867859F031FF02C08BE201C080E237FD3D
S11312B08DE2B70190E00E949B09A51438F4B701B0
S11312C080E390E00E949B095A94F7CFAA94F4011A
S11312D0EA0DF11D8081B70190E00E949B09A110E5
S11312E0F5CF332009F451CEB70180E290E00E949B
S11312F09B093A94F6CFF7018681978102C08FEF5C
S11313009FEF2C96E2E10C944D0AFC01059061508C
S113131070400110D8F7809590958E0F9F1F089507
S1131320FC016150704001900110D8F780959095B0
S11313308E0F9F1F08950F931F93CF93DF93FB018D
S1131340238121FD03C08FEF9FEF28C022FF16C029
S113135046815781248135814217530744F4A08183
S1131360B1819D012F5F3F4F318320838C93268170
S113137037812F5F3F4F3783268310C0EB01092F3E
S1131380182F0084F185E02D0995892BE1F68E81D3
S11313909F8101969F838E83812F902FDF91CF9120
S11313A01F910F910895FA01AA27283051F1203195
S11313B081F1E8946F936E7F6E5F7F4F8F4F9F4FE5
S11313C0AF4FB1E03ED0B4E03CD0670F781F891F27
S11313D09A1FA11D680F791F8A1F911DA11D6A0FF5
S11313E0711D811D911DA11D20D009F468943F91A8
S11313F02AE0269F11243019305D3193DEF6CF01A7
S11314000895462F4770405D4193B3E00FD0C9F76C
S1131410F6CF462F4F70405D4A3318F0495D31FDD9
S11314204052419302D0A9F7EACFB4E0A69597952C
S1131430879577956795BA95C9F700976105710502
S113144008959B01AC010A2E06945795479537954C
S11314502795BA95C9F7620F731F841F951FA01DA6
S113146008952F923F924F925F926F927F928F9244
S11314709F92AF92BF92CF92DF92EF92FF920F931F
S11314801F93CF93DF93CDB7DEB7CA1BDB0B0FB629
S1131490F894DEBF0FBECDBF09942A8839884888E6
S11314A05F846E847D848C849B84AA84B984C8847C
S11314B0DF80EE80FD800C811B81AA81B981CE0F73
S11314C0D11D0FB6F894DEBF0FBECDBFED01089558
S10714D0F894FFCFBA
S11314D400000001000000000000200500000000DE
S11314E40002000000001005000000007265616441
S11314F453656E736F7200706F7274420050494486
S1131504203D2025640A0050494432203D202564AE
S1131514200A004C656674203D20256420526967C6
S11315246874203D2025640A002825642920256444
S11315342C2000636F6D70617265203D202564006A
S113154461766720256420202020746D7020256432
S11315540A2000706F7765726F6E0081FFC0FF0010
S11315640040007F004343434344030201000273E9
S113157474617274310073746172743200737461CF
S1131584727433006C656674203D202564202C201D
S1131594207269676874203D2025640A004441541C
S11315A441203D2025640A004652414D4154002502
S11315B4640A25640A0042414B415400484F47459C
S11315C4520056414E535445520053544F50005008
S10B15D4574D20696E69740093
S9030000FC
